:020000040000FA
:1000000058502020D5000000D9000000DB0000007F
:1000100000000000000000000000000000000000E0
:10002000000000000000000000000000DD000000F3
:100030000000000000000000DF000000E100000000
:10004000430700004B0700003D0C0000B10C00000E
:10005000210600002D060000E3000000E300000080
:1000600000000000E3000000E300000000000000CA
:1000700000000000790C0000950C00005D0C0000F1
:10008000CD0B0000050C0000950B0000B10B00002B
:10009000210C0000E90B000000000000000000003F
:1000A000E3000000E300000000000000000000008A
:1000B000E300000000000000E30000004107000032
:1000C0000348854600F094FA00480047110D0000EF
:1000D0005850202003480047FEE7FEE7FEE7FEE712
:1000E000FEE7FEE7C100000003460B439B0703D079
:1000F00009E008C9121F08C0042AFAD203E00B78ED
:100100000370401C491C521EF9D27047F0B50746D7
:100110000846584087B0C00F049048000E4659006A
:1001200040084908BC1A884105D2384631461E4667
:1001300017460B4602465800400810434CD0300D7D
:10014000039040055900400D490D0590401A02905A
:10015000402872DA18030121000B090508430190B9
:1001600004980092002805D001995242002088414D
:1001700000920190029840210A1A0199009800F01B
:10018000A2F905460C466B4607CB00F0BDF9C01935
:100190007141039A0E0D0023D71756401A467A4034
:1001A000164344D0049A002A2DD0029A012A039AB9
:1001B00015DC1205C01A914101263605001C71415B
:1001C000D20F059ED2070093019202962A4623463B
:1001D00000F0BAF907B0F0BD38463146FAE7160527
:1001E000224A0F46B218C01AB74101210905001C66
:1001F0004F4100187F41114618187941E20F104312
:100200006D19644113E0E2076D0815436408C207E5
:100210001443039A01261205C01A91413605001CA9
:100220007141CE07400830434908C01851412A4661
:10023000234600F07CF9CDE7FFE704980122400057
:10024000C117121A00238B4104983146C417381A7B
:10025000A141EEE730B40124E407634030BC55E728
:1002600030B40124E407614030BC4FE70000E0FFF8
:10027000F0B51FB488B00B9909980024484009993B
:10028000C00F490049080991C0070B990090490027
:1002900049080B9109990898A64608431CD00B9968
:1002A0000A98084318D0099801244000420D4800DC
:1002B000410D099824050003000B204309900B9879
:1002C0000003000B20430B9050181C4940180022DB
:1002D00001901446104605E0002001460DB0F0BD27
:1002E000032801DA034600E003239C46C11A0AAE44
:1002F0000AE05F0008ADED5B4F00F75B7D43002730
:10030000AA187C41491C5B1E6145F2DD410004AB2B
:100310005A522104120C0A43240C401C0828DFDB2B
:10032000019802900099704601910090059B049AF3
:100330000799069800F008F9D0E700000DFCFFFFD0
:10034000F0B50C465C4085B0E40FE40703944C0024
:100350000026640859009446490802460296224342
:1003600021D062460A431ED06200570D4A000E0398
:100370002303550D012402462C492405781B1B0B31
:10038000360B401823432643614600901C46501A02
:10039000B44103D30098401C009002E092180098EA
:1003A0005B41002803DA0020014605B0F0BD0020C3
:1003B000012109050746864611E064461D46141BC7
:1003C000B54106D36546521BB341744607430C43FF
:1003D000A646CD0740084908284392185B410546C8
:1003E0000D43EAD11046184313D0604619465040D9
:1003F0007140084306D06046101AB34106D201226C
:10040000002306E000220123DB0702E00122D243A1
:100410005310009874460105381C6141029C039DED
:100420000019694100F083F8BFE70000FD030000F8
:100430000EB505490291002100910A460B46019133
:1004400000F082F803B000BD330400004A00090345
:100450000123090B1B051943094B10B5520D9A4294
:1004600001DA002010BD064B34339A4203DC9A1A9D
:1004700000F039F810BD03495118884010BD000044
:10048000FF030000CDFBFFFF70B50446002903D039
:1004900000202022012310E0002801D00020C043CA
:1004A000C046C0460DE02546D5408D4205D30D46D9
:1004B0009540641B1D46954040191546521E002D5F
:1004C000F1DC214670BD10B5202A04DB0146203A3C
:1004D0009140002010BD914020239C1A0346E34028
:1004E0001943904010BD10B5202A04DB0846203A7D
:1004F000D040002110BD0B46D340D0402024A21A8A
:1005000091400843194610BD10B5202A06DBCB17D1
:100510000846203A1041C1170B4306E00B46134131
:10052000D0402024A21A91400843194610BD10B5AE
:10053000002B08DA0024401C614192185B411A43E9
:1005400001D14008400010BDF0B51FB482B005468F
:100550000C0003D0084600F0E1FB02E000F0DEFBF7
:1005600020300246009021462846FFF7ACFF049B4E
:10057000059A04460F4618431143084314D0184601
:1005800010431BD0009840210A1A18460599FFF71E
:10059000AAFF05460E46009A05990498FFF793FFB7
:1005A000084305D0012004E02046394607B0F0BDDD
:1005B0000020C11705430E432C43374300990E9882
:1005C0006305401A7905E40A00220C43FD0A0A304B
:1005D00002D500200146E9E70105101969410C9C8C
:1005E0000D9D00196941FFF7A2FFDFE70000000041
:1005F0001CB5094800900948019005460126009C59
:1006000005E0E36807CC33430C3C98471034AC4218
:10061000F7D3FFF759FD0000280F0000480F000036
:10062000014800687047C04620100040014800683B
:100630007047C04620300040811E091F00BFFCD219
:1006400070470000B0B53F231B04044C25689D4350
:1006500008431043184028182060B0BD38010B40F3
:10066000FFB5012422022A4B1968039291431960B5
:10067000EE490D686D04FCD5457E25409E69A64374
:1006800074199C612024045D03252C40DE69AE436F
:100690003419DC611F4C256805262660466A3768D8
:1006A0001F6276685E6207262E402660C4697F2539
:1006B0002D02DE69AE436406640C3419DC61076800
:1006C000456882680092C668026901924269029296
:1006D0009A69114C14403A07120B2D03ADB2AA18B7
:1006E0003243009D2D072D0D1543019A1543029AA3
:1006F0001543007E2843094A024010199861186882
:10070000039A1043186008688005FCD5FFBDC046F9
:1007100008010B40001340408D00F0FF72FF0F00F6
:10072000BD498860C14802689202FCD501221204CA
:100730000B6813430B600168C906FCD57047C046BF
:10074000704780B500F006F880BD80B500F002F873
:1007500080BD0000FEB51E48051D007802900026F1
:100760000298864232D22C682178490023484218E8
:10077000527801273B469340415C8900204841580C
:10078000144809581940E1601DD00195607800F0C7
:1007900025F821784900194D6A1852783B46934054
:1007A000695C8900164A51580B4D4A591A434A51FF
:1007B000002801D00020C7436068381860600448F2
:1007C00000780290019D2D1D761CC9E7FEBDC04634
:1007D00008002020381000004810000040000749A1
:1007E0000A5C9200064B9A582723DB01D25808185E
:1007F0004078C240012010407047C046760D00008E
:1008000000002020F0B58DB06F48704A42607048FB
:100810004260704842607048426070484260704870
:100820004260704842607048426070484260704860
:10083000426070484260704E7260704D6A60704CE9
:100840006260704B5A6070494A6070484260704AFA
:100850005D4F3A605E4F3A605E4F3A605E4F3A607D
:100860005E4F3A605E4F3A605E4F3A605E4F3A606C
:100870005E4F3A605E4F3A605E4F3A6032602A6087
:1008800022601A600A60026010200290FFF7D4FE16
:100890006049002008600F20019000025E4E316820
:1008A000814301246502481930600320C043311F91
:1008B0000A6802400A607068A04370607068574917
:1008C000084070605648FFF7CBFE2005069007945D
:1008D0006706564C1F200006716B8143716305202B
:1008E0000490020400200699FFF7ACFE49484E49E7
:1008F000416242262068384204D14A48FFF79CFEF4
:10090000761EF7D14448C06C059007980204002079
:1009100003900699FFF796FE3E48434941624226FE
:100920002068384204D13F48FFF786FE761EF7D193
:100930003C48173005994843374EF16CFFF7A4FD4A
:100940003B49401807280CD3706834490840706050
:100950000798000271680143716020682842FCD04A
:10096000B8E73068029A104320218843306001982C
:100970000003716B81430920000308187063079816
:100980000003316801433160B06B1043B063706B9A
:10099000A8437063039D2846FFF7C2FE2548042143
:1009A00001604F21416085600168049A1143016034
:1009B00008AC21A114222046FFF796FB28462146C9
:1009C00000F044F80DB0F0BD00080A40030000B18B
:1009D00000280A40008810400008104000281040FD
:1009E0000008504000088640002886400048084023
:1009F0000088864000A8864000080940000887401B
:100A00000088464000A846400008004000280040FA
:100A10000100002608030B4004010B40FFFEFFFF0E
:100A2000000F0000D10300000100000E04020B4083
:100A300021FBFFFF10E000E00405000000C2010000
:100A4000000018000000003000000000F0B585B084
:100A500001900A78D200434DAB185B6880241C4398
:100A6000AA589200404BD4504A78D200AC1864681F
:100A70003E4E2643AA589200D65083003C4AD7588F
:100A8000012420033A180823936000253D501120CB
:100A90000602B8590494E24302921040B851887A91
:100AA0000A89024388891043324A0240B859324BBE
:100AB00003409818B851887BCA7B0243087C1043D6
:100AC0007E221040BC196368934318186060B859BF
:100AD0000322D20390430396B8514868FFF7A8FC5D
:100AE000264B2E462A46FFF7C3FB02460B460198CB
:100AF000032801D0234900E0214930460096FFF742
:100B00001FFC05460E46FFF7A1FC81B222691E4B71
:100B10001340C9182161FFF78BFC02460B4628469B
:100B20003146FFF797FB194B009D2A46FFF7A0FBC4
:100B3000174B2A46FFF7EAFAFFF788FC3F210840E7
:100B400062698A43801860616068049A1040616835
:100B5000029B194008186060039978581043785038
:100B600005B0F0BDF00D000004804240800004009C
:100B7000F00E000018670000E798FDFF000030400D
:100B8000D0129341D01283410000FFFF000050407B
:100B90000000E03F80B505480068C0B2022804D1DB
:100BA0002D480068002800D0804780BD2010864076
:100BB00080B505480068C0B2022804D126484068C4
:100BC000002800D0804780BD2030864080B5054891
:100BD0000068C0B2022804D11F488068002800D0F5
:100BE000804780BD2050084080B505480068C0B2ED
:100BF000022804D118488069002800D0804780BDB1
:100C00002010874080B505480068C0B2022804D192
:100C10001148C068002800D0804780BD20908640E1
:100C200080B505480068C0B2022804D10A480069AE
:100C3000002800D0804780BD20B0864080B50548A0
:100C40000068C0B2022804D103484069002800D0DF
:100C5000804780BD201009402C00202080B5054829
:100C60000068C0B20B2804D118480068002800D0E2
:100C7000804780BD2090104080B505480068C0B214
:100C80000B2804D111484068002800D0804780BD5F
:100C90002010104080B505480068C0B20B2804D170
:100CA0000A488068002800D0804780BD203010406E
:100CB00080B505480068C0B20B2804D10348C0685D
:100CC000002800D0804780BD2010504048002020E0
:100CD00080B50249484300F003F880BDDE03000000
:100CE000B0B5502141430948036823221C460368DC
:100CF0009C42FCD001D9E41A03E0E41A051F2D68D8
:100D00006419A2188A42F1D3B0BDC04618E000E0D1
:100D1000FFF778FD0A20FFF7DBFFFBE72021020C3D
:100D200001D010211046020A01D0104608390209EC
:100D300001D01046091F820801D01046891E4208C2
:100D400001D0881E7047081A70470000000000009C
:100D500002E008C8121F08C1002AFAD1704700003B
:100D60007047000000000000002001E001C1121FD8
:100D7000002AFBD1704700000001001C001D001E6E
:100D8000001F00020003000400050006010001012D
:100D90000007010201030104010500080009000A1F
:100DA000000B0106010701080109010A010B010CF2
:100DB000010D010E010F0110000C000D000E000FBF
:100DC0000010001100120013001401110112011390
:100DD000001500160114011501160117011800175E
:100DE000001800190119011A011B001A001B00004C
:100DF00000000000020000000100000002000000EE
:100E00000B000000020000000C00000002000000C7
:100E100014000000020000001500000002000000A5
:100E200002000000020000000500000002000000B7
:100E3000100000000200000011000000020000008D
:100E40001600000002000000170000000200000071
:100E50001200000002000000130000000200000069
:100E60002600000002000000270000000200000031
:100E70001F0000000200000020000000020000002F
:100E80002A000000020000002B0000000200000009
:100E90002D000000020000002E00000002000000F3
:100EA00034000000020000003500000002000000D5
:100EB0000E000000020000000F0000000200000011
:100EC0001C000000020000001D00000002000000E5
:100ED00023000000040000002200000004000000C5
:100EE0003A0000000200000036000000020000008E
:100EF00000801040000010400020104000005040D2
:100F000001000000000000000000000040000000A0
:100F100020000000000000000200000009000000A6
:100F2000020000002400C441480F000000002020FF
:100F300008000000500D0000500F000008002020A5
:100F400050500000680D000000000A4000200A40D8
:04000005000000C136
:00000001FF
